{
  "_format": "hh-sol-artifact-1",
  "contractName": "GoldTokenLoan",
  "sourceName": "contracts/GoldTokenLoan.sol",
  "abi": [
    {
      "inputs": [
        {
          "internalType": "address",
          "name": "_goldToken",
          "type": "address"
        }
      ],
      "stateMutability": "nonpayable",
      "type": "constructor"
    },
    {
      "anonymous": false,
      "inputs": [
        {
          "indexed": false,
          "internalType": "uint256",
          "name": "loanId",
          "type": "uint256"
        },
        {
          "indexed": false,
          "internalType": "address",
          "name": "lender",
          "type": "address"
        }
      ],
      "name": "CollateralSeized",
      "type": "event"
    },
    {
      "anonymous": false,
      "inputs": [
        {
          "indexed": false,
          "internalType": "uint256",
          "name": "loanId",
          "type": "uint256"
        }
      ],
      "name": "LoanCancelled",
      "type": "event"
    },
    {
      "anonymous": false,
      "inputs": [
        {
          "indexed": false,
          "internalType": "uint256",
          "name": "loanId",
          "type": "uint256"
        },
        {
          "indexed": false,
          "internalType": "address",
          "name": "lender",
          "type": "address"
        },
        {
          "indexed": false,
          "internalType": "uint256",
          "name": "ethAmount",
          "type": "uint256"
        },
        {
          "indexed": false,
          "internalType": "uint256",
          "name": "interestRate",
          "type": "uint256"
        },
        {
          "indexed": false,
          "internalType": "uint256",
          "name": "duration",
          "type": "uint256"
        }
      ],
      "name": "LoanOfferCreated",
      "type": "event"
    },
    {
      "anonymous": false,
      "inputs": [
        {
          "indexed": false,
          "internalType": "uint256",
          "name": "loanId",
          "type": "uint256"
        }
      ],
      "name": "LoanRepaid",
      "type": "event"
    },
    {
      "anonymous": false,
      "inputs": [
        {
          "indexed": false,
          "internalType": "uint256",
          "name": "loanId",
          "type": "uint256"
        },
        {
          "indexed": false,
          "internalType": "address",
          "name": "borrower",
          "type": "address"
        },
        {
          "indexed": false,
          "internalType": "uint256",
          "name": "collateralAmount",
          "type": "uint256"
        }
      ],
      "name": "LoanTaken",
      "type": "event"
    },
    {
      "inputs": [],
      "name": "TOKEN_PER_ETH",
      "outputs": [
        {
          "internalType": "uint256",
          "name": "",
          "type": "uint256"
        }
      ],
      "stateMutability": "view",
      "type": "function"
    },
    {
      "inputs": [
        {
          "internalType": "uint256",
          "name": "loanId",
          "type": "uint256"
        }
      ],
      "name": "cancelLoanOffer",
      "outputs": [],
      "stateMutability": "nonpayable",
      "type": "function"
    },
    {
      "inputs": [
        {
          "internalType": "uint256",
          "name": "interestRate",
          "type": "uint256"
        },
        {
          "internalType": "uint256",
          "name": "durationInDays",
          "type": "uint256"
        }
      ],
      "name": "createLoanOffer",
      "outputs": [],
      "stateMutability": "payable",
      "type": "function"
    },
    {
      "inputs": [
        {
          "internalType": "address",
          "name": "user",
          "type": "address"
        }
      ],
      "name": "getActiveLoans",
      "outputs": [
        {
          "internalType": "uint256[]",
          "name": "",
          "type": "uint256[]"
        }
      ],
      "stateMutability": "view",
      "type": "function"
    },
    {
      "inputs": [
        {
          "internalType": "address",
          "name": "user",
          "type": "address"
        }
      ],
      "name": "getPastLoans",
      "outputs": [
        {
          "internalType": "uint256[]",
          "name": "",
          "type": "uint256[]"
        }
      ],
      "stateMutability": "view",
      "type": "function"
    },
    {
      "inputs": [
        {
          "internalType": "uint256",
          "name": "loanId",
          "type": "uint256"
        }
      ],
      "name": "getRemainingRepaymentAmount",
      "outputs": [
        {
          "internalType": "uint256",
          "name": "",
          "type": "uint256"
        }
      ],
      "stateMutability": "view",
      "type": "function"
    },
    {
      "inputs": [],
      "name": "goldToken",
      "outputs": [
        {
          "internalType": "contract IGoldToken",
          "name": "",
          "type": "address"
        }
      ],
      "stateMutability": "view",
      "type": "function"
    },
    {
      "inputs": [
        {
          "internalType": "uint256",
          "name": "",
          "type": "uint256"
        }
      ],
      "name": "loans",
      "outputs": [
        {
          "internalType": "address",
          "name": "lender",
          "type": "address"
        },
        {
          "internalType": "uint256",
          "name": "ethAmount",
          "type": "uint256"
        },
        {
          "internalType": "uint256",
          "name": "interestRate",
          "type": "uint256"
        },
        {
          "internalType": "uint256",
          "name": "duration",
          "type": "uint256"
        },
        {
          "internalType": "bool",
          "name": "isActive",
          "type": "bool"
        },
        {
          "internalType": "address",
          "name": "borrower",
          "type": "address"
        },
        {
          "internalType": "uint256",
          "name": "dueDate",
          "type": "uint256"
        },
        {
          "internalType": "bool",
          "name": "isRepaid",
          "type": "bool"
        },
        {
          "internalType": "uint256",
          "name": "collateralAmount",
          "type": "uint256"
        }
      ],
      "stateMutability": "view",
      "type": "function"
    },
    {
      "inputs": [],
      "name": "nextLoanId",
      "outputs": [
        {
          "internalType": "uint256",
          "name": "",
          "type": "uint256"
        }
      ],
      "stateMutability": "view",
      "type": "function"
    },
    {
      "inputs": [
        {
          "internalType": "uint256",
          "name": "loanId",
          "type": "uint256"
        }
      ],
      "name": "repayLoan",
      "outputs": [],
      "stateMutability": "payable",
      "type": "function"
    },
    {
      "inputs": [
        {
          "internalType": "uint256",
          "name": "loanId",
          "type": "uint256"
        }
      ],
      "name": "seizeCollateral",
      "outputs": [],
      "stateMutability": "nonpayable",
      "type": "function"
    },
    {
      "inputs": [
        {
          "internalType": "uint256",
          "name": "loanId",
          "type": "uint256"
        }
      ],
      "name": "takeLoan",
      "outputs": [],
      "stateMutability": "nonpayable",
      "type": "function"
    },
    {
      "stateMutability": "payable",
      "type": "receive"
    }
  ],
  "bytecode": "0x608060405234801561001057600080fd5b506040516122b03803806122b0833981810160405281019061003291906100db565b806000806101000a81548173ffffffffffffffffffffffffffffffffffffffff021916908373ffffffffffffffffffffffffffffffffffffffff16021790555050610108565b600080fd5b600073ffffffffffffffffffffffffffffffffffffffff82169050919050565b60006100a88261007d565b9050919050565b6100b88161009d565b81146100c357600080fd5b50565b6000815190506100d5816100af565b92915050565b6000602082840312156100f1576100f0610078565b5b60006100ff848285016100c6565b91505092915050565b612199806101176000396000f3fe6080604052600436106100ab5760003560e01c8063ab7b1c8911610064578063ab7b1c89146101c5578063b824c5e9146101e1578063bbc2fcf5146101fd578063e1ec3c6814610228578063fa1f651c1461026d578063fdbe0041146102aa576100b2565b806303d1a1a1146100b75780635060599c146100f457806374cbe57e1461011d57806387c51459146101465780638c803fc21461017157806394002b571461019a576100b2565b366100b257005b600080fd5b3480156100c357600080fd5b506100de60048036038101906100d99190611569565b6102e7565b6040516100eb919061165e565b60405180910390f35b34801561010057600080fd5b5061011b600480360381019061011691906116ac565b610381565b005b34801561012957600080fd5b50610144600480360381019061013f91906116ac565b6105c6565b005b34801561015257600080fd5b5061015b6107f6565b60405161016891906116e8565b60405180910390f35b34801561017d57600080fd5b50610198600480360381019061019391906116ac565b6107fc565b005b3480156101a657600080fd5b506101af610bcc565b6040516101bc9190611762565b60405180910390f35b6101df60048036038101906101da91906116ac565b610bf0565b005b6101fb60048036038101906101f6919061177d565b610f42565b005b34801561020957600080fd5b50610212611238565b60405161021f91906116e8565b60405180910390f35b34801561023457600080fd5b5061024f600480360381019061024a91906116ac565b611245565b604051610264999897969594939291906117e7565b60405180910390f35b34801561027957600080fd5b50610294600480360381019061028f9190611569565b6112ed565b6040516102a1919061165e565b60405180910390f35b3480156102b657600080fd5b506102d160048036038101906102cc91906116ac565b611387565b6040516102de91906116e8565b60405180910390f35b6060600260008373ffffffffffffffffffffffffffffffffffffffff1673ffffffffffffffffffffffffffffffffffffffff16815260200190815260200160002060000180548060200260200160405190810160405280929190818152602001828054801561037557602002820191906000526020600020905b815481526020019060010190808311610361575b50505050509050919050565b6000600160008381526020019081526020016000209050806005015442116103de576040517f08c379a00000000000000000000000000000000000000000000000000000000081526004016103d5906118d1565b60405180910390fd5b8060060160009054906101000a900460ff1615610430576040517f08c379a00000000000000000000000000000000000000000000000000000000081526004016104279061193d565b60405180910390fd5b8060040160009054906101000a900460ff16610481576040517f08c379a0000000000000000000000000000000000000000000000000000000008152600401610478906119a9565b60405180910390fd5b60008160040160006101000a81548160ff02191690831515021790555060008054906101000a900473ffffffffffffffffffffffffffffffffffffffff1673ffffffffffffffffffffffffffffffffffffffff1663a9059cbb8260000160009054906101000a900473ffffffffffffffffffffffffffffffffffffffff1683600701546040518363ffffffff1660e01b81526004016105219291906119c9565b6020604051808303816000875af1158015610540573d6000803e3d6000fd5b505050506040513d601f19601f820116820180604052508101906105649190611a1e565b507ffe88ad2b82909d5157d1ec871c292a21908ace89709d033825c2e18a4a1c1d6b828260000160009054906101000a900473ffffffffffffffffffffffffffffffffffffffff166040516105ba929190611a4b565b60405180910390a15050565b60006001600083815260200190815260200160002090503373ffffffffffffffffffffffffffffffffffffffff168160000160009054906101000a900473ffffffffffffffffffffffffffffffffffffffff1673ffffffffffffffffffffffffffffffffffffffff161461066f576040517f08c379a000000000000000000000000000000000000000000000000000000000815260040161066690611ac0565b60405180910390fd5b8060040160009054906101000a900460ff166106c0576040517f08c379a00000000000000000000000000000000000000000000000000000000081526004016106b790611b2c565b60405180910390fd5b600073ffffffffffffffffffffffffffffffffffffffff168160040160019054906101000a900473ffffffffffffffffffffffffffffffffffffffff1673ffffffffffffffffffffffffffffffffffffffff1614610753576040517f08c379a000000000000000000000000000000000000000000000000000000000815260040161074a90611b98565b60405180910390fd5b60008160040160006101000a81548160ff0219169083151502179055503373ffffffffffffffffffffffffffffffffffffffff166108fc82600101549081150290604051600060405180830381858888f193505050501580156107ba573d6000803e3d6000fd5b507fb71becc91961a6b43bcc5b3b630f3dce02c7fd444cf3738c4f188062b1caf5bc826040516107ea91906116e8565b60405180910390a15050565b60035481565b60006001600083815260200190815260200160002090508060040160009054906101000a900460ff16610864576040517f08c379a000000000000000000000000000000000000000000000000000000000815260040161085b906119a9565b60405180910390fd5b600073ffffffffffffffffffffffffffffffffffffffff168160040160019054906101000a900473ffffffffffffffffffffffffffffffffffffffff1673ffffffffffffffffffffffffffffffffffffffff16146108f7576040517f08c379a00000000000000000000000000000000000000000000000000000000081526004016108ee90611b98565b60405180910390fd5b6000816007015490508060008054906101000a900473ffffffffffffffffffffffffffffffffffffffff1673ffffffffffffffffffffffffffffffffffffffff166370a08231336040518263ffffffff1660e01b815260040161095a9190611bb8565b602060405180830381865afa158015610977573d6000803e3d6000fd5b505050506040513d601f19601f8201168201806040525081019061099b9190611be8565b10156109dc576040517f08c379a00000000000000000000000000000000000000000000000000000000081526004016109d390611c61565b60405180910390fd5b338260040160016101000a81548173ffffffffffffffffffffffffffffffffffffffff021916908373ffffffffffffffffffffffffffffffffffffffff160217905550816003015442610a2f9190611cb0565b8260050181905550600260003373ffffffffffffffffffffffffffffffffffffffff1673ffffffffffffffffffffffffffffffffffffffff1681526020019081526020016000206000018390806001815401808255809150506001900390600052602060002001600090919091909150553373ffffffffffffffffffffffffffffffffffffffff166108fc83600101549081150290604051600060405180830381858888f19350505050158015610aea573d6000803e3d6000fd5b5060008054906101000a900473ffffffffffffffffffffffffffffffffffffffff1673ffffffffffffffffffffffffffffffffffffffff166323b872dd3330846040518463ffffffff1660e01b8152600401610b4893929190611ce4565b6020604051808303816000875af1158015610b67573d6000803e3d6000fd5b505050506040513d601f19601f82011682018060405250810190610b8b9190611a1e565b507f3f4c314b85c58632462245175b1078c0ddde17be04384100be8caf0768cebe17833383604051610bbf93929190611d1b565b60405180910390a1505050565b60008054906101000a900473ffffffffffffffffffffffffffffffffffffffff1681565b60006001600083815260200190815260200160002090503373ffffffffffffffffffffffffffffffffffffffff168160040160019054906101000a900473ffffffffffffffffffffffffffffffffffffffff1673ffffffffffffffffffffffffffffffffffffffff1614610c99576040517f08c379a0000000000000000000000000000000000000000000000000000000008152600401610c9090611d9e565b60405180910390fd5b8060060160009054906101000a900460ff1615610ceb576040517f08c379a0000000000000000000000000000000000000000000000000000000008152600401610ce29061193d565b60405180910390fd5b600061271082600201548360010154610d049190611dbe565b610d0e9190611e2f565b90506000818360010154610d229190611cb0565b905080341015610d67576040517f08c379a0000000000000000000000000000000000000000000000000000000008152600401610d5e90611eac565b60405180910390fd5b60018360060160006101000a81548160ff021916908315150217905550610d8e33856113ff565b600260003373ffffffffffffffffffffffffffffffffffffffff1673ffffffffffffffffffffffffffffffffffffffff1681526020019081526020016000206001018490806001815401808255809150506001900390600052602060002001600090919091909150558260000160009054906101000a900473ffffffffffffffffffffffffffffffffffffffff1673ffffffffffffffffffffffffffffffffffffffff166108fc829081150290604051600060405180830381858888f19350505050158015610e61573d6000803e3d6000fd5b5060008054906101000a900473ffffffffffffffffffffffffffffffffffffffff1673ffffffffffffffffffffffffffffffffffffffff1663a9059cbb3385600701546040518363ffffffff1660e01b8152600401610ec19291906119c9565b6020604051808303816000875af1158015610ee0573d6000803e3d6000fd5b505050506040513d601f19601f82011682018060405250810190610f049190611a1e565b507f9a7851747cd7ffb3fe0a32caf3da48b31f27cebe131267051640f8b72fc4718684604051610f3491906116e8565b60405180910390a150505050565b60003411610f85576040517f08c379a0000000000000000000000000000000000000000000000000000000008152600401610f7c90611f18565b60405180910390fd5b60008211610fc8576040517f08c379a0000000000000000000000000000000000000000000000000000000008152600401610fbf90611faa565b60405180910390fd5b6000811161100b576040517f08c379a000000000000000000000000000000000000000000000000000000000815260040161100290612016565b60405180910390fd5b60006003600081548092919061102090612036565b9190505590506040518061012001604052803373ffffffffffffffffffffffffffffffffffffffff16815260200134815260200184815260200162015180846110699190611dbe565b8152602001600115158152602001600073ffffffffffffffffffffffffffffffffffffffff16815260200160008152602001600015158152602001670de0b6b3a7640000683635c9adc5dea00000346110c29190611dbe565b6110cc9190611e2f565b8152506001600083815260200190815260200160002060008201518160000160006101000a81548173ffffffffffffffffffffffffffffffffffffffff021916908373ffffffffffffffffffffffffffffffffffffffff16021790555060208201518160010155604082015181600201556060820151816003015560808201518160040160006101000a81548160ff02191690831515021790555060a08201518160040160016101000a81548173ffffffffffffffffffffffffffffffffffffffff021916908373ffffffffffffffffffffffffffffffffffffffff16021790555060c0820151816005015560e08201518160060160006101000a81548160ff02191690831515021790555061010082015181600701559050507f068be421395498b8f640e7d439ce7c3f676b5dae2f264a77494c0e737a0d851281333486620151808761121a9190611dbe565b60405161122b95949392919061207e565b60405180910390a1505050565b683635c9adc5dea0000081565b60016020528060005260406000206000915090508060000160009054906101000a900473ffffffffffffffffffffffffffffffffffffffff16908060010154908060020154908060030154908060040160009054906101000a900460ff16908060040160019054906101000a900473ffffffffffffffffffffffffffffffffffffffff16908060050154908060060160009054906101000a900460ff16908060070154905089565b6060600260008373ffffffffffffffffffffffffffffffffffffffff1673ffffffffffffffffffffffffffffffffffffffff16815260200190815260200160002060010180548060200260200160405190810160405280929190818152602001828054801561137b57602002820191906000526020600020905b815481526020019060010190808311611367575b50505050509050919050565b6000806001600084815260200190815260200160002090508060060160009054906101000a900460ff16156113c05760009150506113fa565b6000612710826002015483600101546113d99190611dbe565b6113e39190611e2f565b90508082600101546113f59190611cb0565b925050505b919050565b6000600260008473ffffffffffffffffffffffffffffffffffffffff1673ffffffffffffffffffffffffffffffffffffffff168152602001908152602001600020600001905060005b81805490508110156115005782828281548110611468576114676120d1565b5b9060005260206000200154036114f357816001838054905061148a9190612100565b8154811061149b5761149a6120d1565b5b90600052602060002001548282815481106114b9576114b86120d1565b5b9060005260206000200181905550818054806114d8576114d7612134565b5b60019003818190600052602060002001600090559055611500565b8080600101915050611448565b50505050565b600080fd5b600073ffffffffffffffffffffffffffffffffffffffff82169050919050565b60006115368261150b565b9050919050565b6115468161152b565b811461155157600080fd5b50565b6000813590506115638161153d565b92915050565b60006020828403121561157f5761157e611506565b5b600061158d84828501611554565b91505092915050565b600081519050919050565b600082825260208201905092915050565b6000819050602082019050919050565b6000819050919050565b6115d5816115c2565b82525050565b60006115e783836115cc565b60208301905092915050565b6000602082019050919050565b600061160b82611596565b61161581856115a1565b9350611620836115b2565b8060005b8381101561165157815161163888826115db565b9750611643836115f3565b925050600181019050611624565b5085935050505092915050565b600060208201905081810360008301526116788184611600565b905092915050565b611689816115c2565b811461169457600080fd5b50565b6000813590506116a681611680565b92915050565b6000602082840312156116c2576116c1611506565b5b60006116d084828501611697565b91505092915050565b6116e2816115c2565b82525050565b60006020820190506116fd60008301846116d9565b92915050565b6000819050919050565b600061172861172361171e8461150b565b611703565b61150b565b9050919050565b600061173a8261170d565b9050919050565b600061174c8261172f565b9050919050565b61175c81611741565b82525050565b60006020820190506117776000830184611753565b92915050565b6000806040838503121561179457611793611506565b5b60006117a285828601611697565b92505060206117b385828601611697565b9150509250929050565b6117c68161152b565b82525050565b60008115159050919050565b6117e1816117cc565b82525050565b6000610120820190506117fd600083018c6117bd565b61180a602083018b6116d9565b611817604083018a6116d9565b61182460608301896116d9565b61183160808301886117d8565b61183e60a08301876117bd565b61184b60c08301866116d9565b61185860e08301856117d8565b6118666101008301846116d9565b9a9950505050505050505050565b600082825260208201905092915050565b7f4c6f616e206973206e6f74206f76657264756500000000000000000000000000600082015250565b60006118bb601383611874565b91506118c682611885565b602082019050919050565b600060208201905081810360008301526118ea816118ae565b9050919050565b7f4c6f616e20616c72656164792072657061696400000000000000000000000000600082015250565b6000611927601383611874565b9150611932826118f1565b602082019050919050565b600060208201905081810360008301526119568161191a565b9050919050565b7f4c6f616e206973206e6f74206163746976650000000000000000000000000000600082015250565b6000611993601283611874565b915061199e8261195d565b602082019050919050565b600060208201905081810360008301526119c281611986565b9050919050565b60006040820190506119de60008301856117bd565b6119eb60208301846116d9565b9392505050565b6119fb816117cc565b8114611a0657600080fd5b50565b600081519050611a18816119f2565b92915050565b600060208284031215611a3457611a33611506565b5b6000611a4284828501611a09565b91505092915050565b6000604082019050611a6060008301856116d9565b611a6d60208301846117bd565b9392505050565b7f4e6f7420746865206c656e646572000000000000000000000000000000000000600082015250565b6000611aaa600e83611874565b9150611ab582611a74565b602082019050919050565b60006020820190508181036000830152611ad981611a9d565b9050919050565b7f4c6f616e206e6f74206163746976650000000000000000000000000000000000600082015250565b6000611b16600f83611874565b9150611b2182611ae0565b602082019050919050565b60006020820190508181036000830152611b4581611b09565b9050919050565b7f4c6f616e20616c72656164792074616b656e0000000000000000000000000000600082015250565b6000611b82601283611874565b9150611b8d82611b4c565b602082019050919050565b60006020820190508181036000830152611bb181611b75565b9050919050565b6000602082019050611bcd60008301846117bd565b92915050565b600081519050611be281611680565b92915050565b600060208284031215611bfe57611bfd611506565b5b6000611c0c84828501611bd3565b91505092915050565b7f496e73756666696369656e7420476f6c64546f6b656e2062616c616e63650000600082015250565b6000611c4b601e83611874565b9150611c5682611c15565b602082019050919050565b60006020820190508181036000830152611c7a81611c3e565b9050919050565b7f4e487b7100000000000000000000000000000000000000000000000000000000600052601160045260246000fd5b6000611cbb826115c2565b9150611cc6836115c2565b9250828201905080821115611cde57611cdd611c81565b5b92915050565b6000606082019050611cf960008301866117bd565b611d0660208301856117bd565b611d1360408301846116d9565b949350505050565b6000606082019050611d3060008301866116d9565b611d3d60208301856117bd565b611d4a60408301846116d9565b949350505050565b7f4e6f742074686520626f72726f77657200000000000000000000000000000000600082015250565b6000611d88601083611874565b9150611d9382611d52565b602082019050919050565b60006020820190508181036000830152611db781611d7b565b9050919050565b6000611dc9826115c2565b9150611dd4836115c2565b9250828202611de2816115c2565b91508282048414831517611df957611df8611c81565b5b5092915050565b7f4e487b7100000000000000000000000000000000000000000000000000000000600052601260045260246000fd5b6000611e3a826115c2565b9150611e45836115c2565b925082611e5557611e54611e00565b5b828204905092915050565b7f496e73756666696369656e742072657061796d656e7420616d6f756e74000000600082015250565b6000611e96601d83611874565b9150611ea182611e60565b602082019050919050565b60006020820190508181036000830152611ec581611e89565b9050919050565b7f4d7573742070726f766964652045544820666f72206c6f616e00000000000000600082015250565b6000611f02601983611874565b9150611f0d82611ecc565b602082019050919050565b60006020820190508181036000830152611f3181611ef5565b9050919050565b7f496e7465726573742072617465206d757374206265206772656174657220746860008201527f616e203000000000000000000000000000000000000000000000000000000000602082015250565b6000611f94602483611874565b9150611f9f82611f38565b604082019050919050565b60006020820190508181036000830152611fc381611f87565b9050919050565b7f4475726174696f6e206d7573742062652067726561746572207468616e203000600082015250565b6000612000601f83611874565b915061200b82611fca565b602082019050919050565b6000602082019050818103600083015261202f81611ff3565b9050919050565b6000612041826115c2565b91507fffffffffffffffffffffffffffffffffffffffffffffffffffffffffffffffff820361207357612072611c81565b5b600182019050919050565b600060a08201905061209360008301886116d9565b6120a060208301876117bd565b6120ad60408301866116d9565b6120ba60608301856116d9565b6120c760808301846116d9565b9695505050505050565b7f4e487b7100000000000000000000000000000000000000000000000000000000600052603260045260246000fd5b600061210b826115c2565b9150612116836115c2565b925082820390508181111561212e5761212d611c81565b5b92915050565b7f4e487b7100000000000000000000000000000000000000000000000000000000600052603160045260246000fdfea2646970667358221220a329345a568cddc426d83ab9538fd48da907e109bdcd04d46230a02aa4c46cd364736f6c634300081b0033",
  "linkReferences": {},
  "deployedLinkReferences": {}
}