{
  "_format": "hh-sol-artifact-1",
  "contractName": "LoanContract",
  "sourceName": "contracts/LoanContract.sol",
  "abi": [
    {
      "inputs": [
        {
          "internalType": "contract IERC20",
          "name": "_goldToken",
          "type": "address"
        }
      ],
      "stateMutability": "nonpayable",
      "type": "constructor"
    },
    {
      "inputs": [],
      "name": "goldToken",
      "outputs": [
        {
          "internalType": "contract IERC20",
          "name": "",
          "type": "address"
        }
      ],
      "stateMutability": "view",
      "type": "function"
    },
    {
      "inputs": [
        {
          "internalType": "address",
          "name": "borrower",
          "type": "address"
        }
      ],
      "name": "liquidateLoan",
      "outputs": [],
      "stateMutability": "nonpayable",
      "type": "function"
    },
    {
      "inputs": [
        {
          "internalType": "address",
          "name": "",
          "type": "address"
        }
      ],
      "name": "loans",
      "outputs": [
        {
          "internalType": "uint256",
          "name": "amount",
          "type": "uint256"
        },
        {
          "internalType": "uint256",
          "name": "collateral",
          "type": "uint256"
        },
        {
          "internalType": "address",
          "name": "borrower",
          "type": "address"
        },
        {
          "internalType": "bool",
          "name": "repaid",
          "type": "bool"
        }
      ],
      "stateMutability": "view",
      "type": "function"
    },
    {
      "inputs": [],
      "name": "owner",
      "outputs": [
        {
          "internalType": "address",
          "name": "",
          "type": "address"
        }
      ],
      "stateMutability": "view",
      "type": "function"
    },
    {
      "inputs": [],
      "name": "repayLoan",
      "outputs": [],
      "stateMutability": "payable",
      "type": "function"
    },
    {
      "inputs": [
        {
          "internalType": "uint256",
          "name": "collateralAmount",
          "type": "uint256"
        }
      ],
      "name": "requestLoan",
      "outputs": [],
      "stateMutability": "payable",
      "type": "function"
    },
    {
      "stateMutability": "payable",
      "type": "receive"
    }
  ],
  "bytecode": "0x608060405234801561001057600080fd5b506040516110d63803806110d68339818101604052810190610032919061012e565b806000806101000a81548173ffffffffffffffffffffffffffffffffffffffff021916908373ffffffffffffffffffffffffffffffffffffffff16021790555033600160006101000a81548173ffffffffffffffffffffffffffffffffffffffff021916908373ffffffffffffffffffffffffffffffffffffffff1602179055505061015b565b600080fd5b600073ffffffffffffffffffffffffffffffffffffffff82169050919050565b60006100e9826100be565b9050919050565b60006100fb826100de565b9050919050565b61010b816100f0565b811461011657600080fd5b50565b60008151905061012881610102565b92915050565b600060208284031215610144576101436100b9565b5b600061015284828501610119565b91505092915050565b610f6c8061016a6000396000f3fe6080604052600436106100595760003560e01c806373b4086b146100655780638d5d3429146100a55780638da5cb5b146100c157806394002b57146100ec578063bbdfa00e14610117578063f966ade71461014057610060565b3661006057005b600080fd5b34801561007157600080fd5b5061008c600480360381019061008791906109d5565b61014a565b60405161009c9493929190610a45565b60405180910390f35b6100bf60048036038101906100ba9190610ab6565b6101a7565b005b3480156100cd57600080fd5b506100d661044c565b6040516100e39190610ae3565b60405180910390f35b3480156100f857600080fd5b50610101610472565b60405161010e9190610b5d565b60405180910390f35b34801561012357600080fd5b5061013e600480360381019061013991906109d5565b610496565b005b61014861074f565b005b60026020528060005260406000206000915090508060000154908060010154908060020160009054906101000a900473ffffffffffffffffffffffffffffffffffffffff16908060020160149054906101000a900460ff16905084565b6000600260003373ffffffffffffffffffffffffffffffffffffffff1673ffffffffffffffffffffffffffffffffffffffff168152602001908152602001600020600001541461022c576040517f08c379a000000000000000000000000000000000000000000000000000000000815260040161022390610bd5565b60405180910390fd5b60008054906101000a900473ffffffffffffffffffffffffffffffffffffffff1673ffffffffffffffffffffffffffffffffffffffff166323b872dd3330846040518463ffffffff1660e01b815260040161028993929190610bf5565b6020604051808303816000875af11580156102a8573d6000803e3d6000fd5b505050506040513d601f19601f820116820180604052508101906102cc9190610c58565b61030b576040517f08c379a000000000000000000000000000000000000000000000000000000000815260040161030290610cd1565b60405180910390fd5b60405180608001604052808281526020018281526020013373ffffffffffffffffffffffffffffffffffffffff16815260200160001515815250600260003373ffffffffffffffffffffffffffffffffffffffff1673ffffffffffffffffffffffffffffffffffffffff168152602001908152602001600020600082015181600001556020820151816001015560408201518160020160006101000a81548173ffffffffffffffffffffffffffffffffffffffff021916908373ffffffffffffffffffffffffffffffffffffffff16021790555060608201518160020160146101000a81548160ff0219169083151502179055509050503373ffffffffffffffffffffffffffffffffffffffff166108fc829081150290604051600060405180830381858888f19350505050158015610448573d6000803e3d6000fd5b5050565b600160009054906101000a900473ffffffffffffffffffffffffffffffffffffffff1681565b60008054906101000a900473ffffffffffffffffffffffffffffffffffffffff1681565b600160009054906101000a900473ffffffffffffffffffffffffffffffffffffffff1673ffffffffffffffffffffffffffffffffffffffff163373ffffffffffffffffffffffffffffffffffffffff1614610526576040517f08c379a000000000000000000000000000000000000000000000000000000000815260040161051d90610d3d565b60405180910390fd5b6000600260008373ffffffffffffffffffffffffffffffffffffffff1673ffffffffffffffffffffffffffffffffffffffff16815260200190815260200160002090508060020160149054906101000a900460ff16156105bb576040517f08c379a00000000000000000000000000000000000000000000000000000000081526004016105b290610da9565b60405180910390fd5b60008054906101000a900473ffffffffffffffffffffffffffffffffffffffff1673ffffffffffffffffffffffffffffffffffffffff1663a9059cbb600160009054906101000a900473ffffffffffffffffffffffffffffffffffffffff1683600101546040518363ffffffff1660e01b815260040161063c929190610dc9565b6020604051808303816000875af115801561065b573d6000803e3d6000fd5b505050506040513d601f19601f8201168201806040525081019061067f9190610c58565b6106be576040517f08c379a00000000000000000000000000000000000000000000000000000000081526004016106b590610cd1565b60405180910390fd5b600260008373ffffffffffffffffffffffffffffffffffffffff1673ffffffffffffffffffffffffffffffffffffffff16815260200190815260200160002060008082016000905560018201600090556002820160006101000a81549073ffffffffffffffffffffffffffffffffffffffff02191690556002820160146101000a81549060ff021916905550505050565b6000600260003373ffffffffffffffffffffffffffffffffffffffff1673ffffffffffffffffffffffffffffffffffffffff168152602001908152602001600020905060008160000154116107d9576040517f08c379a00000000000000000000000000000000000000000000000000000000081526004016107d090610e3e565b60405180910390fd5b8060020160149054906101000a900460ff161561082b576040517f08c379a000000000000000000000000000000000000000000000000000000000815260040161082290610da9565b60405180910390fd5b80600001543414610871576040517f08c379a000000000000000000000000000000000000000000000000000000000815260040161086890610eaa565b60405180910390fd5b60018160020160146101000a81548160ff02191690831515021790555060008054906101000a900473ffffffffffffffffffffffffffffffffffffffff1673ffffffffffffffffffffffffffffffffffffffff1663a9059cbb3383600101546040518363ffffffff1660e01b81526004016108ed929190610dc9565b6020604051808303816000875af115801561090c573d6000803e3d6000fd5b505050506040513d601f19601f820116820180604052508101906109309190610c58565b61096f576040517f08c379a000000000000000000000000000000000000000000000000000000000815260040161096690610f16565b60405180910390fd5b50565b600080fd5b600073ffffffffffffffffffffffffffffffffffffffff82169050919050565b60006109a282610977565b9050919050565b6109b281610997565b81146109bd57600080fd5b50565b6000813590506109cf816109a9565b92915050565b6000602082840312156109eb576109ea610972565b5b60006109f9848285016109c0565b91505092915050565b6000819050919050565b610a1581610a02565b82525050565b610a2481610997565b82525050565b60008115159050919050565b610a3f81610a2a565b82525050565b6000608082019050610a5a6000830187610a0c565b610a676020830186610a0c565b610a746040830185610a1b565b610a816060830184610a36565b95945050505050565b610a9381610a02565b8114610a9e57600080fd5b50565b600081359050610ab081610a8a565b92915050565b600060208284031215610acc57610acb610972565b5b6000610ada84828501610aa1565b91505092915050565b6000602082019050610af86000830184610a1b565b92915050565b6000819050919050565b6000610b23610b1e610b1984610977565b610afe565b610977565b9050919050565b6000610b3582610b08565b9050919050565b6000610b4782610b2a565b9050919050565b610b5781610b3c565b82525050565b6000602082019050610b726000830184610b4e565b92915050565b600082825260208201905092915050565b7f4c6f616e20616c72656164792074616b656e0000000000000000000000000000600082015250565b6000610bbf601283610b78565b9150610bca82610b89565b602082019050919050565b60006020820190508181036000830152610bee81610bb2565b9050919050565b6000606082019050610c0a6000830186610a1b565b610c176020830185610a1b565b610c246040830184610a0c565b949350505050565b610c3581610a2a565b8114610c4057600080fd5b50565b600081519050610c5281610c2c565b92915050565b600060208284031215610c6e57610c6d610972565b5b6000610c7c84828501610c43565b91505092915050565b7f436f6c6c61746572616c207472616e73666572206661696c6564000000000000600082015250565b6000610cbb601a83610b78565b9150610cc682610c85565b602082019050919050565b60006020820190508181036000830152610cea81610cae565b9050919050565b7f4f6e6c79206f776e65722063616e206c69717569646174650000000000000000600082015250565b6000610d27601883610b78565b9150610d3282610cf1565b602082019050919050565b60006020820190508181036000830152610d5681610d1a565b9050919050565b7f4c6f616e20616c72656164792072657061696400000000000000000000000000600082015250565b6000610d93601383610b78565b9150610d9e82610d5d565b602082019050919050565b60006020820190508181036000830152610dc281610d86565b9050919050565b6000604082019050610dde6000830185610a1b565b610deb6020830184610a0c565b9392505050565b7f4e6f20616374697665206c6f616e000000000000000000000000000000000000600082015250565b6000610e28600e83610b78565b9150610e3382610df2565b602082019050919050565b60006020820190508181036000830152610e5781610e1b565b9050919050565b7f496e636f72726563742072657061796d656e7420616d6f756e74000000000000600082015250565b6000610e94601a83610b78565b9150610e9f82610e5e565b602082019050919050565b60006020820190508181036000830152610ec381610e87565b9050919050565b7f436f6c6c61746572616c2072657475726e206661696c65640000000000000000600082015250565b6000610f00601883610b78565b9150610f0b82610eca565b602082019050919050565b60006020820190508181036000830152610f2f81610ef3565b905091905056fea26469706673582212208da841ed0d9d6fcdd0cac20d319922f109861502f4632162cae1250a30dd120a64736f6c634300081b0033",
  "linkReferences": {},
  "deployedLinkReferences": {}
}