{
  "_format": "hh-sol-artifact-1",
  "contractName": "LoanContract",
  "sourceName": "contracts/LoanContract.sol",
  "abi": [
    {
      "inputs": [
        {
          "internalType": "address",
          "name": "_goldToken",
          "type": "address"
        }
      ],
      "stateMutability": "nonpayable",
      "type": "constructor"
    },
    {
      "anonymous": false,
      "inputs": [
        {
          "indexed": false,
          "internalType": "address",
          "name": "lender",
          "type": "address"
        },
        {
          "indexed": false,
          "internalType": "uint256",
          "name": "loanIndex",
          "type": "uint256"
        },
        {
          "indexed": false,
          "internalType": "uint256",
          "name": "collateralAmount",
          "type": "uint256"
        }
      ],
      "name": "LoanDefaulted",
      "type": "event"
    },
    {
      "anonymous": false,
      "inputs": [
        {
          "indexed": false,
          "internalType": "address",
          "name": "lender",
          "type": "address"
        },
        {
          "indexed": false,
          "internalType": "uint256",
          "name": "loanIndex",
          "type": "uint256"
        }
      ],
      "name": "LoanOfferCancelled",
      "type": "event"
    },
    {
      "anonymous": false,
      "inputs": [
        {
          "indexed": false,
          "internalType": "address",
          "name": "lender",
          "type": "address"
        },
        {
          "indexed": false,
          "internalType": "uint256",
          "name": "ethAmount",
          "type": "uint256"
        },
        {
          "indexed": false,
          "internalType": "uint256",
          "name": "interestRate",
          "type": "uint256"
        },
        {
          "indexed": false,
          "internalType": "uint256",
          "name": "daysToRepay",
          "type": "uint256"
        }
      ],
      "name": "LoanOfferCreated",
      "type": "event"
    },
    {
      "anonymous": false,
      "inputs": [
        {
          "indexed": false,
          "internalType": "address",
          "name": "borrower",
          "type": "address"
        },
        {
          "indexed": false,
          "internalType": "uint256",
          "name": "loanIndex",
          "type": "uint256"
        },
        {
          "indexed": false,
          "internalType": "uint256",
          "name": "repaymentAmount",
          "type": "uint256"
        }
      ],
      "name": "LoanRepaid",
      "type": "event"
    },
    {
      "anonymous": false,
      "inputs": [
        {
          "indexed": false,
          "internalType": "address",
          "name": "borrower",
          "type": "address"
        },
        {
          "indexed": false,
          "internalType": "uint256",
          "name": "loanIndex",
          "type": "uint256"
        },
        {
          "indexed": false,
          "internalType": "uint256",
          "name": "ethAmount",
          "type": "uint256"
        },
        {
          "indexed": false,
          "internalType": "uint256",
          "name": "collateralAmount",
          "type": "uint256"
        }
      ],
      "name": "LoanTaken",
      "type": "event"
    },
    {
      "inputs": [
        {
          "internalType": "address",
          "name": "borrower",
          "type": "address"
        },
        {
          "internalType": "uint256",
          "name": "loanIndex",
          "type": "uint256"
        }
      ],
      "name": "amountLeftToRepay",
      "outputs": [
        {
          "internalType": "uint256",
          "name": "",
          "type": "uint256"
        }
      ],
      "stateMutability": "view",
      "type": "function"
    },
    {
      "inputs": [
        {
          "internalType": "address",
          "name": "",
          "type": "address"
        },
        {
          "internalType": "uint256",
          "name": "",
          "type": "uint256"
        }
      ],
      "name": "borrowerLoans",
      "outputs": [
        {
          "internalType": "address",
          "name": "borrower",
          "type": "address"
        },
        {
          "internalType": "uint256",
          "name": "ethAmount",
          "type": "uint256"
        },
        {
          "internalType": "uint256",
          "name": "interest",
          "type": "uint256"
        },
        {
          "internalType": "uint256",
          "name": "collateralAmount",
          "type": "uint256"
        },
        {
          "internalType": "uint256",
          "name": "startTime",
          "type": "uint256"
        },
        {
          "internalType": "uint256",
          "name": "repayBy",
          "type": "uint256"
        },
        {
          "internalType": "bool",
          "name": "isRepaid",
          "type": "bool"
        }
      ],
      "stateMutability": "view",
      "type": "function"
    },
    {
      "inputs": [
        {
          "internalType": "uint256",
          "name": "offerIndex",
          "type": "uint256"
        }
      ],
      "name": "cancelLoanOffer",
      "outputs": [],
      "stateMutability": "nonpayable",
      "type": "function"
    },
    {
      "inputs": [
        {
          "internalType": "uint256",
          "name": "loanIndex",
          "type": "uint256"
        }
      ],
      "name": "claimCollateral",
      "outputs": [],
      "stateMutability": "nonpayable",
      "type": "function"
    },
    {
      "inputs": [],
      "name": "collateralRate",
      "outputs": [
        {
          "internalType": "uint256",
          "name": "",
          "type": "uint256"
        }
      ],
      "stateMutability": "view",
      "type": "function"
    },
    {
      "inputs": [
        {
          "internalType": "uint256",
          "name": "ethAmount",
          "type": "uint256"
        },
        {
          "internalType": "uint256",
          "name": "interestRate",
          "type": "uint256"
        },
        {
          "internalType": "uint256",
          "name": "daysToRepay",
          "type": "uint256"
        }
      ],
      "name": "createLoanOffer",
      "outputs": [],
      "stateMutability": "payable",
      "type": "function"
    },
    {
      "inputs": [
        {
          "internalType": "address",
          "name": "borrower",
          "type": "address"
        }
      ],
      "name": "getBorrowerLoanHistory",
      "outputs": [
        {
          "components": [
            {
              "internalType": "address",
              "name": "borrower",
              "type": "address"
            },
            {
              "internalType": "uint256",
              "name": "ethAmount",
              "type": "uint256"
            },
            {
              "internalType": "uint256",
              "name": "interest",
              "type": "uint256"
            },
            {
              "internalType": "uint256",
              "name": "collateralAmount",
              "type": "uint256"
            },
            {
              "internalType": "uint256",
              "name": "startTime",
              "type": "uint256"
            },
            {
              "internalType": "uint256",
              "name": "repayBy",
              "type": "uint256"
            },
            {
              "internalType": "bool",
              "name": "isRepaid",
              "type": "bool"
            }
          ],
          "internalType": "struct LoanContract.Loan[]",
          "name": "",
          "type": "tuple[]"
        }
      ],
      "stateMutability": "view",
      "type": "function"
    },
    {
      "inputs": [],
      "name": "getLoanOffers",
      "outputs": [
        {
          "components": [
            {
              "internalType": "address",
              "name": "lender",
              "type": "address"
            },
            {
              "internalType": "uint256",
              "name": "ethAmount",
              "type": "uint256"
            },
            {
              "internalType": "uint256",
              "name": "interestRate",
              "type": "uint256"
            },
            {
              "internalType": "uint256",
              "name": "daysToRepay",
              "type": "uint256"
            },
            {
              "internalType": "bool",
              "name": "isTaken",
              "type": "bool"
            }
          ],
          "internalType": "struct LoanContract.LoanOffer[]",
          "name": "",
          "type": "tuple[]"
        }
      ],
      "stateMutability": "view",
      "type": "function"
    },
    {
      "inputs": [],
      "name": "goldToken",
      "outputs": [
        {
          "internalType": "contract IERC20",
          "name": "",
          "type": "address"
        }
      ],
      "stateMutability": "view",
      "type": "function"
    },
    {
      "inputs": [
        {
          "internalType": "uint256",
          "name": "",
          "type": "uint256"
        }
      ],
      "name": "loanOffers",
      "outputs": [
        {
          "internalType": "address",
          "name": "lender",
          "type": "address"
        },
        {
          "internalType": "uint256",
          "name": "ethAmount",
          "type": "uint256"
        },
        {
          "internalType": "uint256",
          "name": "interestRate",
          "type": "uint256"
        },
        {
          "internalType": "uint256",
          "name": "daysToRepay",
          "type": "uint256"
        },
        {
          "internalType": "bool",
          "name": "isTaken",
          "type": "bool"
        }
      ],
      "stateMutability": "view",
      "type": "function"
    },
    {
      "inputs": [],
      "name": "owner",
      "outputs": [
        {
          "internalType": "address",
          "name": "",
          "type": "address"
        }
      ],
      "stateMutability": "view",
      "type": "function"
    },
    {
      "inputs": [
        {
          "internalType": "uint256",
          "name": "loanIndex",
          "type": "uint256"
        }
      ],
      "name": "repayLoan",
      "outputs": [],
      "stateMutability": "payable",
      "type": "function"
    },
    {
      "inputs": [
        {
          "internalType": "uint256",
          "name": "offerIndex",
          "type": "uint256"
        }
      ],
      "name": "takeLoan",
      "outputs": [],
      "stateMutability": "nonpayable",
      "type": "function"
    }
  ],
  "bytecode": "0x608060405234801561001057600080fd5b506040516125583803806125588339818101604052810190610032919061011c565b806000806101000a81548173ffffffffffffffffffffffffffffffffffffffff021916908373ffffffffffffffffffffffffffffffffffffffff16021790555033600160006101000a81548173ffffffffffffffffffffffffffffffffffffffff021916908373ffffffffffffffffffffffffffffffffffffffff16021790555050610149565b600080fd5b600073ffffffffffffffffffffffffffffffffffffffff82169050919050565b60006100e9826100be565b9050919050565b6100f9816100de565b811461010457600080fd5b50565b600081519050610116816100f0565b92915050565b600060208284031215610132576101316100b9565b5b600061014084828501610107565b91505092915050565b612400806101586000396000f3fe6080604052600436106100c25760003560e01c80638c803fc21161007f578063ab7b1c8911610059578063ab7b1c8914610271578063c49785b41461028d578063e3ed1902146102b6578063efc2f052146102f9576100c2565b80638c803fc2146101f25780638da5cb5b1461021b57806394002b5714610246576100c2565b80632c7bdd4b146100c75780633a867c89146101085780635204cdc01461012457806358a6be1c146101615780637121f0c71461018c57806374cbe57e146101c9575b600080fd5b3480156100d357600080fd5b506100ee60048036038101906100e9919061155f565b610324565b6040516100ff9594939291906115f7565b60405180910390f35b610122600480360381019061011d919061164a565b610397565b005b34801561013057600080fd5b5061014b600480360381019061014691906116c9565b610550565b6040516101589190611860565b60405180910390f35b34801561016d57600080fd5b50610176610691565b6040516101839190611882565b60405180910390f35b34801561019857600080fd5b506101b360048036038101906101ae919061189d565b610696565b6040516101c09190611882565b60405180910390f35b3480156101d557600080fd5b506101f060048036038101906101eb919061155f565b610739565b005b3480156101fe57600080fd5b506102196004803603810190610214919061155f565b6108f8565b005b34801561022757600080fd5b50610230610d8f565b60405161023d91906118dd565b60405180910390f35b34801561025257600080fd5b5061025b610db5565b6040516102689190611957565b60405180910390f35b61028b6004803603810190610286919061155f565b610dd9565b005b34801561029957600080fd5b506102b460048036038101906102af919061155f565b6110ff565b005b3480156102c257600080fd5b506102dd60048036038101906102d8919061189d565b6113aa565b6040516102f09796959493929190611972565b60405180910390f35b34801561030557600080fd5b5061030e611436565b60405161031b9190611af8565b60405180910390f35b6002818154811061033457600080fd5b90600052602060002090600502016000915090508060000160009054906101000a900473ffffffffffffffffffffffffffffffffffffffff16908060010154908060020154908060030154908060040160009054906101000a900460ff16905085565b8234146103d9576040517f08c379a00000000000000000000000000000000000000000000000000000000081526004016103d090611b77565b60405180910390fd5b6000831161041c576040517f08c379a000000000000000000000000000000000000000000000000000000000815260040161041390611c09565b60405180910390fd5b60026040518060a001604052803373ffffffffffffffffffffffffffffffffffffffff16815260200185815260200184815260200183815260200160001515815250908060018154018082558091505060019003906000526020600020906005020160009091909190915060008201518160000160006101000a81548173ffffffffffffffffffffffffffffffffffffffff021916908373ffffffffffffffffffffffffffffffffffffffff16021790555060208201518160010155604082015181600201556060820151816003015560808201518160040160006101000a81548160ff02191690831515021790555050507f73e36bbfe4044b4d9d88dd81d24bfa021f388c241ff1347dd39821fa2c01a8da338484846040516105439493929190611c29565b60405180910390a1505050565b6060600360008373ffffffffffffffffffffffffffffffffffffffff1673ffffffffffffffffffffffffffffffffffffffff168152602001908152602001600020805480602002602001604051908101604052809291908181526020016000905b8282101561068657838290600052602060002090600702016040518060e00160405290816000820160009054906101000a900473ffffffffffffffffffffffffffffffffffffffff1673ffffffffffffffffffffffffffffffffffffffff1673ffffffffffffffffffffffffffffffffffffffff16815260200160018201548152602001600282015481526020016003820154815260200160048201548152602001600582015481526020016006820160009054906101000a900460ff161515151581525050815260200190600101906105b1565b505050509050919050565b606481565b600080600360008573ffffffffffffffffffffffffffffffffffffffff1673ffffffffffffffffffffffffffffffffffffffff16815260200190815260200160002083815481106106ea576106e9611c6e565b5b906000526020600020906007020190508060060160009054906101000a900460ff161561071b576000915050610733565b8060020154816001015461072f9190611ccc565b9150505b92915050565b60006002828154811061074f5761074e611c6e565b5b906000526020600020906005020190503373ffffffffffffffffffffffffffffffffffffffff168160000160009054906101000a900473ffffffffffffffffffffffffffffffffffffffff1673ffffffffffffffffffffffffffffffffffffffff16146107f1576040517f08c379a00000000000000000000000000000000000000000000000000000000081526004016107e890611d72565b60405180910390fd5b8060040160009054906101000a900460ff1615610843576040517f08c379a000000000000000000000000000000000000000000000000000000000815260040161083a90611dde565b60405180910390fd5b6000816001015490506000826001018190555060018260040160006101000a81548160ff0219169083151502179055503373ffffffffffffffffffffffffffffffffffffffff166108fc829081150290604051600060405180830381858888f193505050501580156108b9573d6000803e3d6000fd5b507fde6783a4fb52c5327f7c274eae129a27e7a61c80eb09b10d281ac45b404c945133846040516108eb929190611dfe565b60405180910390a1505050565b60006002828154811061090e5761090d611c6e565b5b906000526020600020906005020190508060040160009054906101000a900460ff1615610970576040517f08c379a000000000000000000000000000000000000000000000000000000000815260040161096790611dde565b60405180910390fd5b6000600a606483600101546109859190611e27565b61098f9190611e98565b90508060008054906101000a900473ffffffffffffffffffffffffffffffffffffffff1673ffffffffffffffffffffffffffffffffffffffff166370a08231336040518263ffffffff1660e01b81526004016109eb91906118dd565b602060405180830381865afa158015610a08573d6000803e3d6000fd5b505050506040513d601f19601f82011682018060405250810190610a2c9190611ede565b1015610a6d576040517f08c379a0000000000000000000000000000000000000000000000000000000008152600401610a6490611f7d565b60405180910390fd5b60018260040160006101000a81548160ff02191690831515021790555060008054906101000a900473ffffffffffffffffffffffffffffffffffffffff1673ffffffffffffffffffffffffffffffffffffffff166323b872dd3330846040518463ffffffff1660e01b8152600401610ae793929190611f9d565b6020604051808303816000875af1158015610b06573d6000803e3d6000fd5b505050506040513d601f19601f82011682018060405250810190610b2a9190612000565b610b69576040517f08c379a0000000000000000000000000000000000000000000000000000000008152600401610b6090612079565b60405180910390fd5b6000606483600201548460010154610b819190611e27565b610b8b9190611e98565b9050600360003373ffffffffffffffffffffffffffffffffffffffff1673ffffffffffffffffffffffffffffffffffffffff1681526020019081526020016000206040518060e001604052803373ffffffffffffffffffffffffffffffffffffffff16815260200185600101548152602001838152602001848152602001428152602001620151808660030154610c229190611e27565b42610c2d9190611ccc565b815260200160001515815250908060018154018082558091505060019003906000526020600020906007020160009091909190915060008201518160000160006101000a81548173ffffffffffffffffffffffffffffffffffffffff021916908373ffffffffffffffffffffffffffffffffffffffff1602179055506020820151816001015560408201518160020155606082015181600301556080820151816004015560a0820151816005015560c08201518160060160006101000a81548160ff02191690831515021790555050503373ffffffffffffffffffffffffffffffffffffffff166108fc84600101549081150290604051600060405180830381858888f19350505050158015610d47573d6000803e3d6000fd5b507f1daae93c0719c540c3891d8a11e5f3b79cbd03028f1fa7e520d31c1a878433353385856001015485604051610d819493929190611c29565b60405180910390a150505050565b600160009054906101000a900473ffffffffffffffffffffffffffffffffffffffff1681565b60008054906101000a900473ffffffffffffffffffffffffffffffffffffffff1681565b6000600360003373ffffffffffffffffffffffffffffffffffffffff1673ffffffffffffffffffffffffffffffffffffffff1681526020019081526020016000208281548110610e2c57610e2b611c6e565b5b906000526020600020906007020190508060060160009054906101000a900460ff1615610e8e576040517f08c379a0000000000000000000000000000000000000000000000000000000008152600401610e85906120e5565b60405180910390fd5b8060050154421115610ed5576040517f08c379a0000000000000000000000000000000000000000000000000000000008152600401610ecc90612177565b60405180910390fd5b600081600201548260010154610eeb9190611ccc565b9050803414610f2f576040517f08c379a0000000000000000000000000000000000000000000000000000000008152600401610f26906121e3565b60405180910390fd5b60018260060160006101000a81548160ff021916908315150217905550600060028481548110610f6257610f61611c6e565b5b906000526020600020906005020190508060000160009054906101000a900473ffffffffffffffffffffffffffffffffffffffff1673ffffffffffffffffffffffffffffffffffffffff166108fc349081150290604051600060405180830381858888f19350505050158015610fdc573d6000803e3d6000fd5b5060008054906101000a900473ffffffffffffffffffffffffffffffffffffffff1673ffffffffffffffffffffffffffffffffffffffff1663a9059cbb3385600301546040518363ffffffff1660e01b815260040161103c929190611dfe565b6020604051808303816000875af115801561105b573d6000803e3d6000fd5b505050506040513d601f19601f8201168201806040525081019061107f9190612000565b6110be576040517f08c379a00000000000000000000000000000000000000000000000000000000081526004016110b59061224f565b60405180910390fd5b7fc7ce0a35f17b490de2a317e7fecb2cae86b1abffb03800b2f4928235213826983385846040516110f19392919061226f565b60405180910390a150505050565b6000600360003373ffffffffffffffffffffffffffffffffffffffff1673ffffffffffffffffffffffffffffffffffffffff168152602001908152602001600020828154811061115257611151611c6e565b5b906000526020600020906007020190508060060160009054906101000a900460ff16156111b4576040517f08c379a00000000000000000000000000000000000000000000000000000000081526004016111ab906120e5565b60405180910390fd5b806005015442116111fa576040517f08c379a00000000000000000000000000000000000000000000000000000000081526004016111f190612318565b60405180910390fd5b6000600283815481106112105761120f611c6e565b5b9060005260206000209060050201905060008054906101000a900473ffffffffffffffffffffffffffffffffffffffff1673ffffffffffffffffffffffffffffffffffffffff1663a9059cbb8260000160009054906101000a900473ffffffffffffffffffffffffffffffffffffffff1684600301546040518363ffffffff1660e01b81526004016112a3929190611dfe565b6020604051808303816000875af11580156112c2573d6000803e3d6000fd5b505050506040513d601f19601f820116820180604052508101906112e69190612000565b611325576040517f08c379a000000000000000000000000000000000000000000000000000000000815260040161131c906123aa565b60405180910390fd5b60018260060160006101000a81548160ff0219169083151502179055507f1b849894a849eddede200f64b3e4aa5870adc9b6f442acb237bb07d8f100f01b8160000160009054906101000a900473ffffffffffffffffffffffffffffffffffffffff1684846003015460405161139d9392919061226f565b60405180910390a1505050565b600360205281600052604060002081815481106113c657600080fd5b9060005260206000209060070201600091509150508060000160009054906101000a900473ffffffffffffffffffffffffffffffffffffffff16908060010154908060020154908060030154908060040154908060050154908060060160009054906101000a900460ff16905087565b60606002805480602002602001604051908101604052809291908181526020016000905b8282101561151b57838290600052602060002090600502016040518060a00160405290816000820160009054906101000a900473ffffffffffffffffffffffffffffffffffffffff1673ffffffffffffffffffffffffffffffffffffffff1673ffffffffffffffffffffffffffffffffffffffff1681526020016001820154815260200160028201548152602001600382015481526020016004820160009054906101000a900460ff1615151515815250508152602001906001019061145a565b50505050905090565b600080fd5b6000819050919050565b61153c81611529565b811461154757600080fd5b50565b60008135905061155981611533565b92915050565b60006020828403121561157557611574611524565b5b60006115838482850161154a565b91505092915050565b600073ffffffffffffffffffffffffffffffffffffffff82169050919050565b60006115b78261158c565b9050919050565b6115c7816115ac565b82525050565b6115d681611529565b82525050565b60008115159050919050565b6115f1816115dc565b82525050565b600060a08201905061160c60008301886115be565b61161960208301876115cd565b61162660408301866115cd565b61163360608301856115cd565b61164060808301846115e8565b9695505050505050565b60008060006060848603121561166357611662611524565b5b60006116718682870161154a565b93505060206116828682870161154a565b92505060406116938682870161154a565b9150509250925092565b6116a6816115ac565b81146116b157600080fd5b50565b6000813590506116c38161169d565b92915050565b6000602082840312156116df576116de611524565b5b60006116ed848285016116b4565b91505092915050565b600081519050919050565b600082825260208201905092915050565b6000819050602082019050919050565b61172b816115ac565b82525050565b61173a81611529565b82525050565b611749816115dc565b82525050565b60e0820160008201516117656000850182611722565b5060208201516117786020850182611731565b50604082015161178b6040850182611731565b50606082015161179e6060850182611731565b5060808201516117b16080850182611731565b5060a08201516117c460a0850182611731565b5060c08201516117d760c0850182611740565b50505050565b60006117e9838361174f565b60e08301905092915050565b6000602082019050919050565b600061180d826116f6565b6118178185611701565b935061182283611712565b8060005b8381101561185357815161183a88826117dd565b9750611845836117f5565b925050600181019050611826565b5085935050505092915050565b6000602082019050818103600083015261187a8184611802565b905092915050565b600060208201905061189760008301846115cd565b92915050565b600080604083850312156118b4576118b3611524565b5b60006118c2858286016116b4565b92505060206118d38582860161154a565b9150509250929050565b60006020820190506118f260008301846115be565b92915050565b6000819050919050565b600061191d6119186119138461158c565b6118f8565b61158c565b9050919050565b600061192f82611902565b9050919050565b600061194182611924565b9050919050565b61195181611936565b82525050565b600060208201905061196c6000830184611948565b92915050565b600060e082019050611987600083018a6115be565b61199460208301896115cd565b6119a160408301886115cd565b6119ae60608301876115cd565b6119bb60808301866115cd565b6119c860a08301856115cd565b6119d560c08301846115e8565b98975050505050505050565b600081519050919050565b600082825260208201905092915050565b6000819050602082019050919050565b60a082016000820151611a236000850182611722565b506020820151611a366020850182611731565b506040820151611a496040850182611731565b506060820151611a5c6060850182611731565b506080820151611a6f6080850182611740565b50505050565b6000611a818383611a0d565b60a08301905092915050565b6000602082019050919050565b6000611aa5826119e1565b611aaf81856119ec565b9350611aba836119fd565b8060005b83811015611aeb578151611ad28882611a75565b9750611add83611a8d565b925050600181019050611abe565b5085935050505092915050565b60006020820190508181036000830152611b128184611a9a565b905092915050565b600082825260208201905092915050565b7f496e636f72726563742045544820616d6f756e742073656e7400000000000000600082015250565b6000611b61601983611b1a565b9150611b6c82611b2b565b602082019050919050565b60006020820190508181036000830152611b9081611b54565b9050919050565b7f45544820616d6f756e74206d7573742062652067726561746572207468616e2060008201527f7a65726f00000000000000000000000000000000000000000000000000000000602082015250565b6000611bf3602483611b1a565b9150611bfe82611b97565b604082019050919050565b60006020820190508181036000830152611c2281611be6565b9050919050565b6000608082019050611c3e60008301876115be565b611c4b60208301866115cd565b611c5860408301856115cd565b611c6560608301846115cd565b95945050505050565b7f4e487b7100000000000000000000000000000000000000000000000000000000600052603260045260246000fd5b7f4e487b7100000000000000000000000000000000000000000000000000000000600052601160045260246000fd5b6000611cd782611529565b9150611ce283611529565b9250828201905080821115611cfa57611cf9611c9d565b5b92915050565b7f4f6e6c79206c656e6465722063616e2063616e63656c207468656972206f666660008201527f6572000000000000000000000000000000000000000000000000000000000000602082015250565b6000611d5c602283611b1a565b9150611d6782611d00565b604082019050919050565b60006020820190508181036000830152611d8b81611d4f565b9050919050565b7f4c6f616e206f6666657220616c72656164792074616b656e0000000000000000600082015250565b6000611dc8601883611b1a565b9150611dd382611d92565b602082019050919050565b60006020820190508181036000830152611df781611dbb565b9050919050565b6000604082019050611e1360008301856115be565b611e2060208301846115cd565b9392505050565b6000611e3282611529565b9150611e3d83611529565b9250828202611e4b81611529565b91508282048414831517611e6257611e61611c9d565b5b5092915050565b7f4e487b7100000000000000000000000000000000000000000000000000000000600052601260045260246000fd5b6000611ea382611529565b9150611eae83611529565b925082611ebe57611ebd611e69565b5b828204905092915050565b600081519050611ed881611533565b92915050565b600060208284031215611ef457611ef3611524565b5b6000611f0284828501611ec9565b91505092915050565b7f496e73756666696369656e7420476f6c64546f6b656e20666f7220636f6c6c6160008201527f746572616c000000000000000000000000000000000000000000000000000000602082015250565b6000611f67602583611b1a565b9150611f7282611f0b565b604082019050919050565b60006020820190508181036000830152611f9681611f5a565b9050919050565b6000606082019050611fb260008301866115be565b611fbf60208301856115be565b611fcc60408301846115cd565b949350505050565b611fdd816115dc565b8114611fe857600080fd5b50565b600081519050611ffa81611fd4565b92915050565b60006020828403121561201657612015611524565b5b600061202484828501611feb565b91505092915050565b7f436f6c6c61746572616c207472616e73666572206661696c6564000000000000600082015250565b6000612063601a83611b1a565b915061206e8261202d565b602082019050919050565b6000602082019050818103600083015261209281612056565b9050919050565b7f4c6f616e20616c72656164792072657061696400000000000000000000000000600082015250565b60006120cf601383611b1a565b91506120da82612099565b602082019050919050565b600060208201905081810360008301526120fe816120c2565b9050919050565b7f4c6f616e2072657061796d656e7420646561646c696e6520686173207061737360008201527f6564000000000000000000000000000000000000000000000000000000000000602082015250565b6000612161602283611b1a565b915061216c82612105565b604082019050919050565b6000602082019050818103600083015261219081612154565b9050919050565b7f496e636f72726563742072657061796d656e7420616d6f756e74000000000000600082015250565b60006121cd601a83611b1a565b91506121d882612197565b602082019050919050565b600060208201905081810360008301526121fc816121c0565b9050919050565b7f436f6c6c61746572616c2072657475726e206661696c65640000000000000000600082015250565b6000612239601883611b1a565b915061224482612203565b602082019050919050565b600060208201905081810360008301526122688161222c565b9050919050565b600060608201905061228460008301866115be565b61229160208301856115cd565b61229e60408301846115cd565b949350505050565b7f4c6f616e206973207374696c6c20696e2072657061796d656e7420706572696f60008201527f6400000000000000000000000000000000000000000000000000000000000000602082015250565b6000612302602183611b1a565b915061230d826122a6565b604082019050919050565b60006020820190508181036000830152612331816122f5565b9050919050565b7f436f6c6c61746572616c207472616e7366657220746f206c656e64657220666160008201527f696c656400000000000000000000000000000000000000000000000000000000602082015250565b6000612394602483611b1a565b915061239f82612338565b604082019050919050565b600060208201905081810360008301526123c381612387565b905091905056fea2646970667358221220898ad60914fdd444b009a47b0c891b0bbeb12fbc688995f411b03d4f68f6a01264736f6c634300081b0033",
  "linkReferences": {},
  "deployedLinkReferences": {}
}